:020000040800F2
:1000000000070020F1010008ED2B0008A52B0008D7
:10001000CD2B0008A52B0008C52B0008F301000814
:10002000F3010008F3010008F30100085D3C00083B
:10003000F3010008F3010008F3010008F3010008D0
:10004000F3010008F3010008F3010008F3010008C0
:10005000F3010008F3010008F3010008F3010008B0
:10006000F3010008F3010008F3010008F3010008A0
:10007000F3010008F3010008F3010008F301000890
:10008000F3010008F3010008F3010008592B0008F0
:10009000852B0008952B0008F3010008F3010008E8
:1000A000F3010008F3010008F3010008F301000860
:1000B000E9620008F3010008F3010008F3010008F9
:1000C000F3010008F3010008F3010008F301000840
:1000D000F3010008F3010008F3010008F301000830
:1000E000F3010008F3010008F3010008F301000820
:1000F000F3010008F3010008F3010008F301000810
:10010000F3010008F3010008F3010008F3010008FF
:10011000F3010008F3010008F3010008F3010008EF
:10012000F3010008F3010008F3010008F3010008DF
:10013000F3010008F3010008F3010008F3010008CF
:10014000F3010008F3010008F3010008AD580008AE
:10015000F3010008F3010008F3010008F3010008AF
:10016000F3010008F3010008F3010008F30100089F
:10017000F3010008F3010008F3010008F30100088F
:10018000F3010008F3010008F3010008F30100087F
:10019000F3010008F3010008F3010008F30100086F
:1001A000F3010008F3010008F3010008F30100085F
:1001B000F3010008F3010008F3010008F30100084F
:1001C000F3010008F3010008F3010008F30100083F
:1001D000F3010008F3010008F3010008F30100082F
:1001E00045150008FFFFFFFFFFFFFFFFFFFFFFFFB9
:1001F00002E000F000F8FEE772B6374880F30888A6
:10020000364880F3098836483649086040F20000D5
:10021000CCF200004EF63471CEF200010860BFF35C
:100220004F8FBFF36F8F40F20000C0F2F0004EF628
:100230008851CEF200010860BFF34F8FBFF36F8F7C
:100240004FF00000E1EE100A4EF63C71CEF20001D4
:100250000860022080F31488BFF36F8F04F0ACFFB6
:1002600005F0EAFE4FF055301F491B4A91423CBF52
:1002700041F8040BFAE71D49184A91423CBF41F886
:10028000040BFAE71A491B4A1B4B9A423EBF51F82E
:10029000040B42F8040BF8E700201849184A914271
:1002A0003CBF41F8040BFAE704F08AFF05F018FFA1
:1002B000144C154DAC4203DA54F8041B8847F9E797
:1002C00000F042F8114C124DAC4203DA54F8041B12
:1002D0008847F9E704F072BF0007002000230020E0
:1002E0000000000808ED00E00001002000070020E9
:1002F0009867000800230020B0230020B0230020CE
:10030000CC550020E0010008E4010008E4010008E9
:10031000E40100082DE9F04F2DED108AC1F80CD052
:10032000C3689D46BDEC108ABDE8F08F002383F3BF
:1003300011882846A047002004F042FAFEE704F0A6
:10034000BBF900DFFEE70000F8B501F061F904F049
:10035000C9FE074604F018FF0546A8BB1F4B9F4285
:1003600032D001339F4232D01D4B27F0FF029A4218
:1003700030D1F8B200F002FF2E4642F2107400F0C5
:1003800003FF08B10024264601F02AFD20B1032016
:1003900000F078F80024264635B1124B9F4203D076
:1003A00004F0EAFE00242646002004F0A5FE0EB16B
:1003B00000F07EF801F086FA00F054FF204600F0CD
:1003C000DDF800F075F8F9E72E460024D7E704467B
:1003D0000126D4E7064641F28834D0E7010007B091
:1003E000000008B0263A09B008B501F0E3F8A0F122
:1003F00020035842584108BD07B5042101900DEB78
:10040000010001F0F5F803B05DF804FB38B53023C6
:1004100083F31188174803680BB104F09DFA164A5C
:10042000144800234FF47A7104F08CFA002383F30C
:100430001188124C236813B12368013B2360636861
:1004400013B16368013B63600D4D2B7833B963686A
:100450007BB9022001F0A0F9322363602B78032BD3
:1004600007D163682BB9022001F096F94FF47A7333
:10047000636038BDB02300200D040008D0240020A4
:10048000C8230020084B187003280CD8DFE800F0C0
:1004900008050208022001F075B9022001F06AB9CE
:1004A000024B00225A607047C8230020D02400204D
:1004B00010B501F095FC30B1294B03221A70294B7D
:1004C00000225A6010BD284B284A1C461968013189
:1004D000F8D004339342F9D16268254B9A42F1D99E
:1004E000244B9B6803F1006303F580339A42E9D201
:1004F00004F016FE04F028FE002001F0A3F802200C
:10050000FFF7C0FF1C4B1A6C00221A64196E1A66A2
:10051000196E596C5A64596E5A665A6E5A6942F08D
:1005200080025A615A6922F080025A615A691A6936
:1005300042F000521A611A6922F000521A611B69D6
:1005400072B64FF0E0233021C3F8084DD4E90032F1
:1005500081F311889D4683F308881047B2E700BFF6
:10056000C8230020D024002000000108200001083A
:10057000FFFF000800230020003802402DE9F04F63
:1005800093B0DFF8F89202902022FF210AA8D9F850
:10059000085001F041F9B04A1378A3B9AF480121DE
:1005A00003601170302383F3118803680BB104F0EA
:1005B000D3F9AB4AA94800234FF47A7104F0C2F989
:1005C000002383F31188029B13B1A64B029A1A6091
:1005D000A54A029C1378032B1EBF00231370A14A67
:1005E0004FF0000B18BF5360CDF804B05E46DA46FA
:1005F000012001F0C7F824B19A4B1B68002B00F0D2
:10060000C581002000F0D6FF071E80F2F58100F0C2
:1006100071FEF0E70220FFF7E7FE002840F0E381DB
:10062000029B9248BBF1000F08BF1C46022140E02C
:100630004FF47A7000F0BEFF071EF1DB0220FFF7D7
:10064000D3FE0028ECD0013F052F00F2CE81DFE879
:1006500007F003070A0D10330520FFF7CDFE14E065
:10066000D9F80000F9E7D9F80400F6E7D9F808004E
:10067000F3E74FF01C08404600F0E6FF08F10408DD
:10068000FFF7BAFEB8F12C0FF5D1019B012000FA5B
:1006900007F71F43FBB201934FF0000A01F008F97E
:1006A0002EB1019B03F00B030B2B08BF00247048F5
:1006B000022100F09DFF9BE7D9F80C00CDE7002E4A
:1006C000AED0019B03F00B030B2BA9D10220FFF747
:1006D0008BFE07460028A3D0012000F0B3FF0220C4
:1006E000FFF7D0FE00261FFA86F8404600F0BAFF5A
:1006F000044670B10021404600F0CCFF01360028CE
:10070000F1D1BB4604465B48022100F071FF3E4632
:100710006EE70120FFF7B6FE2546D9F80830AB4258
:1007200007D9284600F090FF013040F06181043580
:10073000F3E74D4B00251D704A4BBB465D603E46BE
:10074000ACE7002E3FF46CAF019B03F00B030B2BC7
:100750007FF466AF0220FFF795FE322000F02AFFFB
:10076000B0F10008FFF65CAF18F003077FF458AF54
:10077000D9F8082008EB050393423FF651AFB8F5CE
:10078000807F3FF74DAF3C4B0393B8450BDD4FF4F3
:100790007A7000F00FFF0028FFF642AF039B01378D
:1007A00003F8010BF0E7C820FFF71EFE07460028FC
:1007B0003FF436AF1F2D11D8C5F1200242450AABD8
:1007C00025F0030028BF42462B490392184400F04D
:1007D000FDFF039A2848FF2101F01EF84FEAA80305
:1007E00025490393C8F38702284601F01DF8064601
:1007F000002888D0039B05EB83054FE70220FFF715
:10080000F3FD00283FF40CAF00F064FF00283FF434
:1008100007AF0027B846D9F80830BB4218D91F2FB8
:1008200011D80A9B01330ED027F0030312AA1344F8
:1008300053F8203C05934046042205A901F088FAAC
:1008400004378046E7E7384600F0FEFE0590F2E701
:100850004046FFF7D1FD21E7CC240020B023002043
:100860000D040008D0240020C8230020E8630008FD
:10087000E0630008E4630008CC230020002300208C
:100880000023642105A8059300F0A8FE00287FF44A
:10089000C7AE0220FFF7A8FD00283FF4C1AE0598BF
:1008A00000F000FFD5E70023642105A8059300F0C0
:1008B00095FE00287FF4B4AE0220FFF795FD0028D6
:1008C0003FF4AEAE059800F0FDFEC2E70220FFF750
:1008D0008BFD00283FF4A4AE00F00CFFB9E7022026
:1008E000FFF782FD00283FF49BAE05A9142000F01D
:1008F00007FF0390FFF780FD039905A800F078FE3D
:10090000CCE6322000F056FE071EFFF689AEBB078C
:100910007FF486AED9F8082007EB0A0393423FF62E
:100920007FAE0220FFF760FD00283FF479AE27F08C
:1009300003075744BA453FF4B1AE504600F084FE79
:10094000FFF75AFD0AF1040AF4E74FF47A70FFF753
:100950004BFD00283FF464AE00F0BCFE002849D0F7
:100960000A9B01330BD008220AA9002000F05CFF8B
:1009700000283FD02022FF210AA800F04DFF3B486D
:10098000022100F035FE3A4803F020FF13B0BDE825
:10099000F08F002E3FF444AE019B03F00B030B2BB2
:1009A0007FF43EAE0023642105A8059300F016FEF7
:1009B000074600287FF434AE0220FFF715FD80467D
:1009C00000283FF42DAE0221284800F011FE41F22C
:1009D000883003F0FBFE059800F09CFF464600F0CF
:1009E00067FF3C4604E6064658E64FF0000A17E665
:1009F000BB4688E6374686E6012000F0BBFEA7F13D
:100A0000210016283FF6F4AD01A353F820F000BFF3
:100A10001506000831060008BF060008F1050008A9
:100A2000F1050008F1050008430700080309000864
:100A3000FD07000881080008A7080008CD08000885
:100A4000F1050008DF080008F10500084B0900085F
:100A50009D060008F105000893090008210600081A
:100A60009D060008F105000881080008E063000801
:100A7000A0860100094A136849F2690099B21B0C6B
:100A800000FB01331360064B186844F2506182B2D8
:100A9000000C01FB0200186080B270471823002090
:100AA0001423002010B500211022044600F0B4FEEB
:100AB000034B03CB206061601868A06010BD00BFCD
:100AC000107AFF1FF0B5ADF5517D6EAC4FF4C472D6
:100AD00007460D462046002100F09EFE02F08EF8EB
:100AE000264B4FF47A72B0FBF2F0186093E80700DF
:100AF000022384E807000DF5ED702382FFF7D2FF93
:100B00004EF61B731E49238407A805F061FC1D23C4
:100B100084F832310DF2EB2207AB0DF1340C1E4696
:100B200003CE664510605160334602F10802F6D1EB
:100B300030681060337913710FAE314601222046C0
:100B400000F0EAFE00230393AB7E029305F1190344
:100B5000019380B20123CDE904600093E97E05A3EF
:100B6000D3E90023384602F041FC0DF5517DF0BD7C
:100B7000AFF300809E6AC421818A46EED82400200B
:100B8000EC6300082DE9F0412C4C237ADAB0804662
:100B90000D465BBB27A9284600F0E4FF0746002866
:100BA00042D19DF89D60C82E3ED801464FF4A66202
:100BB000204600F031FE4FF48073C4F8F8314FF452
:100BC0000073C4F80C334FF44073C4F82034324639
:100BD0000DF19E0104F1090000F0F8FD26449DF896
:100BE0009C30777223720BB9EB7E23728122002135
:100BF00006AC27A800F010FE0122214627A800F02D
:100C0000F7FF00230393AB7E029305F1190380B233
:100C100001932823CDE904400093E97E05A3D3E99D
:100C20000023404602F0E2FB5AB0BDE8F08100BF6D
:100C3000AFF3008026417272DF25D7B72035002040
:100C4000F0B5254E4FF48A7505FB0065F1B096F8B6
:100C5000D83085F8DC300024D822214685F8E840D9
:100C60003AA800F0D9FD06F1090000F0CDFDD5F855
:100C7000E4308DF8F000C2B206AF06F109010DF1C3
:100C8000F100CDE93A3400F0A1FD394601223AA83D
:100C900000F0E4FF80B2CDE9047008230127CDE91C
:100CA000023706F1D803019330230093317A0B48C1
:100CB00007A3D3E9002302F099FBA04206DD01F06F
:100CC0009DFFC5F8E000384671B0F0BD2046FBE757
:100CD00078F6339F93CACD8D20350020F034002064
:100CE0002DE9F0411D4D1E4E1E4F86B0284602F0E4
:100CF000A9FB034658B30024CDE90344ADF81440E2
:100D0000027B8DF8142099684068029403AA03C2FC
:100D10001B68DFF8548043F00043029301F070FF3A
:100D2000821941F10003009402A9384601F038FA13
:100D3000A04205DD284602F089FB88F80040D5E78F
:100D400098F80030072B05D8013388F8003006B03A
:100D5000BDE8F081014802F079FBF8E7F0340020AB
:100D600040420F00583A0020553A002070B50D4619
:100D700014461E4602F096FA50B9022E10D1012CEC
:100D80000ED112A3D3E90023C5E90023012007E017
:100D9000282C10D005D8012C09D0052C0FD000200C
:100DA00070BD302CFBD10BA3D3E90023ECE70BA3E0
:100DB000D3E90023E8E70BA3D3E90023E4E70BA37F
:100DC000D3E90023E0E700BFAFF30080401DA1207E
:100DD00026812A0B78F6339F93CACD8D9E6AC42153
:100DE000818A46EE26417272DF25D7B7F017304A66
:100DF00039059E5638B505460E4C0021013500F0E8
:100E000049FCA4F82C55B4F82C0500F02BFC78B163
:100E1000B4F82C0500F036FC014648B9B4F82C05AE
:100E200000F038FCB4F82C350133A4F82C35EAE78F
:100E300038BD00BF2035002010B50A4B0A4A1A60A1
:100E400003F5805393F870203AB9DC6E2CB120463C
:100E500001F044F8204601F081F9BDE81040034854
:100E600001F03CB8583A0020A8640008B04A0020BD
:100E70002DE9F04F8FB000AF05460C4602F012FA94
:100E800000284BD1237E022B1BD1E38A012B18D1E2
:100E900001F0B4FE0646FFF7EDFD03464FF4C870BF
:100EA000DFF8D482B3FBF0F206F5167602FB1033BE
:100EB00016FA83F3C8F80030E37E33B9A74B00225B
:100EC0001A703C37BD46BDE8F08F07F1240120467B
:100ED00000F0FCFD0028F4D107F11400FFF7E2FD5B
:100EE00097F8264007F11401224607F1270005F084
:100EF0003DFA0028E2D10F2C08D8984B1C70D8F886
:100F00000030A3F51673C8F80030DAE797F824101C
:100F10000029D6D0284602F0BDF9D2E7E38A282B73
:100F200033D010D8012B2BD0052BCAD1BFF34F8F54
:100F30008B498C4BCA6802F4E0621343CB60BFF369
:100F40004F8F00BFFDE7302BBBD1874EE17E327A59
:100F50009142B6D1607E3146002291F8DC50854244
:100F600000F0AD800132042A01F58A71F5D13268B2
:100F700040F6B831FA328A4294BF32603160A0E75D
:100F800021462846FFF79EFD9BE721462846FFF7AE
:100F9000F9FD96E7B2F8EC507B6005F103094FEAE2
:100FA00099094FEA8902D11DC908A8EBC1039D46E2
:100FB000EB460021584600F02FFC04F1EE012A46D2
:100FC0003144584600F002FC7B6813B9012000F060
:100FD00039FB96F8D20000F045FB044630B9307278
:100FE00000F078FB204600F02DFBB0E0D6F8D420CE
:100FF0003AB996F8D200B6F82C25824201D8FFF70C
:10100000F9FED6F8D4202A44944208D296F8D200A9
:10101000B6F82C250130824201D8FFF7EBFE70684C
:101020005FFA89F2594600F0FFFB08B9C54679E03E
:10103000726896F8D2002A447260D6F8D42005EB84
:101040000209C6F8D49000F00DFB814509D396F84B
:10105000D220D6F8D4000132001B86F8D220C6F880
:10106000D400FF2D0FD80024347200F033FB20464B
:1010700000F0E8FA00F0B4FE3C4B188108B9FFF725
:1010800017FAC5461DE7BB6896F8D9000AFB03624C
:10109000FB68D2F8E41082F8E83001F58061C2F80C
:1010A000E030C2F8E410FFF7CBFDFFF719FE96F829
:1010B000D920013202F0030286F8D920B6E74FF4B6
:1010C0008A7A0AFB02F505F1EA013144204600F074
:1010D000F9FDF86000287FF4F4AE3544012285F86C
:1010E000E82001F08BFDD5F8E020D6ED007ADFEDA9
:1010F000206A801A192838BF192040F6B832904269
:1011000028BF1046B8EE677A07EE900AF8EEE77A45
:1011100067EEA67ADFED176AE7EE267AFCEEE77A4D
:10112000C6ED007A96F8D9307168BB600AFB03F40B
:10113000321992F8E8505DB1D2F8E4308B42E846BB
:101140003FF428AF002182F8E810C2F8E010C5464D
:101150007368064A9B0A01331381B2E6E934002022
:1011600000ED00E00400FA0520350020D82400201E
:10117000CDCCCC3D6666663FEC340020014B187048
:10118000704700BFE424002030B54FF000542C4BD2
:1011900022689A4285B023D1637D0BB3294A2A483D
:1011A0001370237D03724FF48073C0F8F8314FF44D
:1011B0000073C0F80C3300254FF44073C0F820349E
:1011C0002249C0F8E450C922093000F0FFFA204655
:1011D000E022294600F020FB0124204605B030BD66
:1011E00003F0DCFF044608B90024F6E7184A194D5D
:1011F000136C43F000731364AA6D174B9A42F3D13A
:101200002B6E013B7E2BEFD8144A07CA01AB83E853
:1012100007001846032100F0B1FD6B6D83424FF0CB
:101220000003E1D12A6D8A4201BFAB65054B2A6EEE
:101230001A7003BF0A4BEA6D1A601C46CDE700BF67
:101240009AAD44C5E424002020350020160000207B
:1012500000380240006600405041A0B0586600408F
:101260001023002037B51A4D00F0BAFD02236B7130
:10127000184B28811968184801F064FB002301937A
:10128000164B174900931748174B4FF4805201F043
:10129000D9FF164B197811B1124801F0FBFF01F08C
:1012A000ADFC0446FFF7E6FB4FF4C873B0FBF3F266
:1012B00002FB130304F5167010FA83F00C4B186050
:1012C00003F062FF08B10F232B8103B030BD00BFD4
:1012D000D824002010230020583A00206D0D00086B
:1012E000E8240020F0340020710E0008E4240020DF
:1012F000EC3400202DE9F04F2DED028B0FF2382950
:10130000D9E90089834C93B00BAE9FED7E8BFFF73C
:10131000E7FC814FDFF828A200230A93ADF83430B0
:101320000B9373604FF0000B5B468DED008B012536
:101330000DF11D0207A938468DF81C508DF81DB01F
:1013400001F0AEFA9DF81C30002B40F0A58020463D
:1013500001F0A8FF0646002845D1704F01F04EFC71
:101360003B6898423FD301F049FC8246FFF782FB7D
:101370004FF4C873B0FBF3F202FB13030AF51670C7
:1013800010FA83F03860664F97F800B0CBF1100A7E
:10139000BBF1000F14BF33462B465FFA8AFA0EA842
:1013A0008DF82830FFF77EFBBAF1060F28BF4FF00B
:1013B000060A0EAB03EB0B0152460DF1290000F0BB
:1013C00005FA0AAB0393182302930AF10102554B65
:1013D000D2B2CDE90053049220464CA3D3E90023B6
:1013E00001F0A6FF3E7001F009FC4F4A4F4D136813
:1013F000C31AB3F57A7F2ED3106001F001FC0246C8
:101400000B46204602F02CF8204601F04BFF10B3AB
:101410002B7A474E002B14BF03230223737101F074
:10142000EDFB0EAF4FF47A730122B0FBF3F03946B7
:101430003060304600F022FB182302933D4B0193AD
:1014400080B240F25513CDE90370009342464B46FB
:10145000204601F06DFF2B7A93B101F0CFFB0026FF
:1014600007464FF48A7A95F8D900304400F003001B
:101470000AFB005393F8E82092B30136042EF2D110
:10148000C82003F0A3F92B7A002B7FF43DAF13B0F3
:10149000BDEC028BBDE8F08FDAF8143083F008035E
:1014A000CAF81430594610220EA800F0B5F90DF113
:1014B0001E0308AA0AA9384600F078FF96E8030040
:1014C0000FAB83E803009DF834308DF844300A9B5D
:1014D0000E930EA9DDE90823204602F095F921E7D5
:1014E000D3F8E02042B12B68FA2B38BFFA23BA1A9E
:1014F0000533B2EB430FC0D3FFF7A2FB0028BCD1EA
:10150000BEE700BF0000000000000000401DA12059
:1015100026812A0BF0340020583A0020EC340020B9
:10152000E9340020E8340020503A00202035002023
:10153000D8240020543A0020F1C6A7C1D068080F73
:101540000008024008B5054800F0CEFFBDE808409D
:10155000034A0449002004F0E5BE00BF583A0020C9
:10156000784B0020390E000870B50F4B1B78013303
:10157000DBB2012B0C4611D80C4D29684FF47A735D
:101580000E6AA2FB0332014622462846B047844237
:1015900004D1074B00221A70012070BD4FF4FA707D
:1015A00003F014F90020F8E71C230020F04D002080
:1015B0006C4B002007B50023024601210DF1070006
:1015C0008DF80730FFF7D0FF20B19DF8070003B07A
:1015D0005DF804FB4FF0FF30F9E700000A4608B55C
:1015E0000421FFF7C1FF80F00100C0B2404208BDF6
:1015F00030B4054C2368DD69044B0A46AC4601460D
:10160000204630BC604700BFF04D0020A08601009E
:1016100070B503F00DFC094E094D30800024286898
:101620003388834208D903F0FDFB2B68044401335F
:10163000B4F5803F2B60F2D370BD00BF6E4B00202D
:10164000404B002003F0A2BC00F1006000F58030A8
:101650000068704700F10060920000F5803003F0F0
:101660002DBC0000054B1A68054B1B889B1A834252
:1016700002D9104403F0D6BB00207047404B002035
:101680006E4B0020024B1B68184403F0D3BB00BF15
:10169000404B0020024B1B68184403F0E3BB00BF23
:1016A000404B002010F003030AD1B0F5047F05D2AF
:1016B00000F10050A0F51040D0F8003818467047EF
:1016C0000023FBE700F10050A0F51040D0F8100A0D
:1016D00070470000064991F8243033B10023086AAE
:1016E00081F824300822FFF7B5BF0120704700BF02
:1016F000444B0020014B1868704700BF002004E0F5
:1017000070B5194B1D68194B0138C5F30B0408441B
:101710002D0C04221E88A6420BD15C680A46013CAF
:10172000824213460FD214F9016F4EB102F8016BD9
:10173000F6E7013A03F10803ECD181420B4602D2ED
:101740002C2203F8012B0A4A05241688AE4204D144
:10175000984284BF967803F8016B013C02F10402C1
:10176000F3D1581A70BD00BF002004E04C6400089B
:1017700038640008022802BF014B08229A617047B2
:1017800000080240022802BF024B4FF400229A6177
:10179000704700BF00080240022801BF024A536997
:1017A00083F00803536170470008024070B5044697
:1017B0004FF47A764CB1412C254628BF412506FBD3
:1017C00005F003F003F8641BF4E770BD10B50023C7
:1017D000934203D0CC5CC4540133F9E710BD000040
:1017E00010B5013810F9013F3BB191F900409C421E
:1017F00003D11AB10131013AF4E71AB191F900208D
:10180000981A10BD1046FCE703460246D01A12F99A
:10181000011B0029FAD1704702440346934202D0CB
:1018200003F8011BFAE770472DE9F8431F4D1446F2
:1018300095F824200746884652BBDFF870909CB389
:1018400095F824302BB92022FF2148462F62FFF75C
:10185000E3FF95F82400C0F10802A24228BF224607
:10186000D6B24146920005EB8000FFF7AFFF95F836
:101870002430A41B1E44F6B2082E17449044E4B250
:1018800085F82460DBD1FFF725FF0028D7D108E0D9
:101890002B6A03EB82038342CFD0FFF71BFF0028A4
:1018A000CBD10020BDE8F8830120FBE7444B0020AA
:1018B000024B1A78024B1A70704700BF6C4B002025
:1018C0001C23002010B5104C104802F0B9FA214634
:1018D0000E4802F0E1FA2468626DD2F8043843F051
:1018E0000203C2F804384FF47A70FFF75FFF08492B
:1018F000204602F0F9FB626DD2F8043823F00203AF
:10190000C2F8043810BD00BF90650008F04D0020FB
:1019100098650008704700002DE9F3470D4604461E
:1019200000219046284640F27912FFF775FF2346C2
:1019300020220021284601F009FF231D0222202138
:10194000284601F003FF631D03222221284601F0EF
:10195000FDFEA31D03222521284601F0F7FE04F118
:10196000080310222821284601F0F0FE04F110039C
:1019700008223821284601F0E9FE04F1110308226B
:101980004021284601F0E2FE04F11203082248211A
:10199000284601F0DBFE04F11403202250212846E2
:1019A00001F0D4FE04F1180340227021284601F012
:1019B000CDFE04F120030822B021284601F0C6FE26
:1019C00004F121030822B821284601F0BFFE04F1EA
:1019D0002207C0263B46314608222846083601F039
:1019E000B5FEB6F5A07F07F10107F3D194F83230C8
:1019F0008DF8073031460DF107030822284601F023
:101A0000A5FE002604F1330A9DF807304FEAC60907
:101A10009E4209F5A47720D394F83231502B28BF89
:101A200050238DF80730B8F1000F08D139460DF179
:101A300007030722284601F089FE09F24F17002606
:101A400004F233149DF807309E4207EBC6010DD314
:101A50000731C80802B0BDE8F0870AEB0603082288
:101A60003946284601F072FE0136CDE7A319082257
:101A7000284601F06BFE0136E4E7000013B504468A
:101A80000846002101602346C0F80310202201907F
:101A900001F05CFE0198231D0222202101F056FE78
:101AA0000198631D0322222101F050FE0198A31D1D
:101AB0000322252101F04AFE019804F108031022B7
:101AC000282101F043FE072002B010BDF7B5047FC6
:101AD00005460E462CB1838A122B02D9012003B091
:101AE000F0BD0023194607220096284601F0F2FCBB
:101AF000731C0093012200230721284601F0EAFC11
:101B0000D4B9B31C0093052223460821284601F0CE
:101B1000E1FC0D24B378102BE0D83746B278BB1B1C
:101B2000934210D32B7FA88A0734E408B3B98442C8
:101B300094BF00200120D2E7AB8ADB00083BDB0822
:101B4000B3700824E6E7FB1C00932146002308221B
:101B5000284601F0BFFC08340137DFE7201A18BF20
:101B60000120BCE7F7B5047F05460E462CB1838AF9
:101B7000CA2B02D9012003B0F0BD002319460096FC
:101B80000822284601F0A6FC731CD4B90822009351
:101B900011462346284601F09DFC10247378C82B7B
:101BA000E8D8012372785F1C013B934210D32B7F4E
:101BB000A88A0734E408B3B9844294BF0020012006
:101BC000D9E7AB8ADB00083BDB0873700824E5E744
:101BD000F3190093214600230822284601F07AFCDD
:101BE00008343B46DEE7201A18BF0120C3E7000097
:101BF000F7B50D4604460021164628468122FFF718
:101C00000BFE234608220021284601F09FFD94F98F
:101C100001206378002AB8BF7F238DF807309EB972
:101C20000DF1070307220821284601F08FFD0F2739
:101C3000002602349DF807309E4207EBC60105D30B
:101C40000731C80803B0F0BD0827F1E7A31908223F
:101C5000284601F07BFD0136ECE70000F7B50E46A3
:101C60000546002114463046CE22FFF7D5FD2B460F
:101C700028220021304601F069FD2B7AC82B28BFAD
:101C8000C8238DF807308CB90DF1070308222821ED
:101C9000304601F05BFD30242F469DF807207B1B6A
:101CA000934205D3E01DC00803B0F0BD2824F3E73C
:101CB00007F1090321460822304601F047FD0834A8
:101CC0000137EAE7F7B5047F05460E4634B1838A4B
:101CD000B3F5827F02D9012003B0F0BD0096012345
:101CE00010220021284601F0F5FBDCB9B31C00935B
:101CF000092223461021284601F0ECFB19247388A1
:101D0000B3F5807FE7D837467288BB1B934210D368
:101D10002B7FA88A0734E408B3B9844294BF00201B
:101D20000120D9E7AB8ADB00103BDB08738010246D
:101D3000E5E73B1D0093214600230822284601F0D9
:101D4000C9FB08340137DFE7201A18BF0120C3E7B9
:101D500030B5094D0A4491420DD011F8013B58406D
:101D6000082340F30004013B2C4013F0FF0384EAF6
:101D70005000F6D1EFE730BD2083B8EDF7B54FF056
:101D8000FF33DFF854C0DFF854E000EB81011A465E
:101D900088421CD050F8044B019401AF042417F87A
:101DA000015B82EA05620825DB18164605F1FF355E
:101DB0005241002EBCBF83EA0C0382EA0E0215F0EA
:101DC000FF05F1D1013C14F0FF04E8D1E0E7D8436E
:101DD000D14303B0F0BD00BF9336EAA9EBE1F04276
:101DE000F7B5384A106851686B4603C36A463649EE
:101DF0003648082304F0CAFA0446002833D10A25DD
:101E0000334A106851686B4603C36A4631492F480C
:101E1000082304F0BBFA0446002849D00369B3F54F
:101E2000702F45D8B0F8661041F6EF3291423FD19D
:101E3000294A024402F15C018B4239D35C3B2349BD
:101E400000209E1AFFF784FF3246074604F1640122
:101E50000020FFF77DFFA3689F4229D1E3689842E5
:101E600008BF002524E00369B3F5702F27D8418B04
:101E700041F6EF32914220D1174A024402F110019B
:101E80008B4218D3103B114900209D1AFFF760FFC9
:101E90002A46064604F118010020FFF759FFA368FF
:101EA0009E4202D1E368984201D00D25A8E70025A3
:101EB000284603B0F0BD1025A2E70C25A0E70B25AE
:101EC0009EE700BF6C640008DCFF0E000000010804
:101ED0007564000890FF0E000800FFF710B5037C42
:101EE000044613B9006804F039FA204610BD00001A
:101EF0000023BFF35B8FC360BFF35B8FBFF35B8FC8
:101F00008360BFF35B8F7047BFF35B8F0068BFF3E5
:101F10005B8F704770B505460C30FFF7F5FF05F194
:101F2000080604463046FFF7EFFFA04206D93046C8
:101F30006D68FFF7E9FF2544281A70BD3046FFF7AA
:101F4000E3FF201AF9E7000070B50546406898B134
:101F500005F10800FFF7D8FF05F10C0604463046EE
:101F6000FFF7D2FF8442304694BF6D680025FFF72B
:101F7000CBFF013C2C44201A70BD000038B50C4644
:101F80000546FFF7C7FFA04210D305F10800FFF791
:101F9000BBFF04446868B4FBF0F100FB1144BFF3DD
:101FA0005B8F0120AC60BFF35B8F38BD0020FCE786
:101FB0002DE9F041144607460D46FFF7C5FF844260
:101FC00028BF0446D4B1B84658F80C6B4046FFF71A
:101FD0009BFF3044286040467E68FFF795FF331A28
:101FE0009C4203D86C600120BDE8F0816B60A41BAB
:101FF0003B68AB602044E8600220F5E72046F3E749
:1020000038B50C460546FFF79FFFA04210D305F1F7
:102010000C00FFF779FF04446868B4FBF0F100FBA3
:102020001144BFF35B8F0120EC60BFF35B8F38BDC1
:102030000020FCE72DE9FF41884669460746FFF787
:10204000B7FF6C4606B204EBC6060025B44209D0C1
:102050006268206808EB0501FFF7B8FB6368083485
:102060001D44F3E729463846FFF7CAFF284604B067
:10207000BDE8F081F8B505460C300F46FFF744FF88
:1020800005F1080604463046FFF73EFFA042304601
:1020900088BF6C68FFF738FF201A386020B13046DF
:1020A0002C68FFF731FF2044F8BD000073B51446DB
:1020B00006460D46FFF72EFF844228BF04460190D6
:1020C000DCB101A93046FFF7D5FF019B33B9326877
:1020D000C5E90233C5E9002401200CE09C4238BF69
:1020E00001942860019868608442F5D93368AB6038
:1020F000241AEC60022002B070BD2046FBE700000D
:102100002DE9FF410F466946FFF7D0FF6C4600B24C
:1021100004EBC0050026AC4209D0D4F8048054F882
:10212000081BB8194246FFF751FB4644F3E7304617
:1021300004B0BDE8F081000038B50546FFF7E0FFC8
:10214000044601462846FFF719FF204638BD000027
:102150000121884238BF084604F0EAB808B104F00B
:10216000FDB8704703685B6818470000002070479F
:10217000704700000020704700F5805090F8D800AC
:10218000C0F340007047000000F5805090F9E00077
:102190007047000000F58050C0F8DC100120704747
:1021A000F7B50C68BDF8207014F0005473D10D7BA6
:1021B000082D70D8302585F31188056AAE68760140
:1021C0000CD4AC68240108D4AC6814F0805460D1FD
:1021D00084F31188204603B0F0BD01240E6804F199
:1021E000180C002EB8BFF6004FEA0C1CB4BF46F026
:1021F0000406760545F80C600E680FFA84FC16F0AC
:10220000804F18BF05EB0C1E05EB0C1C1EBFDEF843
:10221000806146F00206CEF880610E7BCCF88461C6
:1022200005EB04158E68C5F88C614E68C5F88861A9
:10223000DCF8805145F00105CCF8805141F2780579
:1022400000EB441C660105EB4414AC440444CCE9A7
:1022500000230D46083401F10C0C55F804EB44F84A
:1022600004EB6545F9D12D882580841904F5805447
:1022700007F0030594F8946026F00B06354384F8C4
:102280009450002484F31188009700F007FD01208A
:10229000A1E70224A2E74FF0FF309CE713B500F559
:1022A00080540191E06EFFF74FFE1F280AD9019973
:1022B000E06E2022FFF7BEFEA0F1200358425841F5
:1022C00002B010BD0020FBE708B5302383F311886E
:1022D00000F58050C06EFFF70BFE002383F31188DA
:1022E00008BD000000220260828142608260704767
:1022F00010B500220023C0E9002300230446038117
:102300000C30FFF7EFFF204610BD0000F0B505468A
:1023100000F580500C4690F8D83013F0040FC3F34A
:10232000800108BF114661F3820380F8D83005EBC5
:10233000441303F58453103389B01B79D8074FEA4F
:1023400044162FD582B319072ED46846FFF7D0FF65
:1023500005EB441303F5845303AA03F10807186837
:102360005968144603C40833BB422246F7D11868A3
:1023700020609B88A380DDE90E23CDE900230123A3
:10238000ADF808302B6869469B6B28469847354462
:1023900005F5845510352B791A075CBF43F0080307
:1023A0002B7101E0002AF2D109B0F0BD2DE9F04710
:1023B0009A4688B0074688469146302383F31188B1
:1023C00007F580546846FFF793FFE06EFFF7A2FD24
:1023D0001F282AD9E06E20226946FFF7ADFE20288B
:1023E00023D103AD444605AB2E4603CE9E4220606A
:1023F0006160354604F10804F6D130682060B38886
:10240000A380DDE90023C9E90023BDF80830AAF85C
:102410000030002383F3118853464A46414638462C
:1024200008B0BDE8F04700F0F7BB002080F311884A
:1024300008B0BDE8F08700002DE9F84F18220446E7
:102440000F4604300021FFF7E7F92046234B40F800
:10245000243BFFF747FF04F13800FFF749FF04F181
:10246000580804F582554646183530462036FFF7A1
:102470003FFFAE42F9D104F580554FF480534FF041
:102480000009C5E91739C5F858800123EE6604F53F
:10249000875804F58456C5F8649085F8683085F847
:1024A0007030183608F118084FF0000A4FF0000B92
:1024B00046E908ABA6F11800FFF714FF203646F8EE
:1024C000289C4645F4D185F8E07017B1044800F027
:1024D0008FFB044B23622046BDE8F88FA8640008F8
:1024E000806400080064004010B5044B197804466D
:1024F0004A1C1A70FFF7A0FF204610BD744B002045
:102500002DE9F047002950D0294B2A4FB7FBF1F5B0
:1025100099428CBF0A231123581EB5FBF3FC03FB21
:102520001C53C4B22BB102280346F5D80020BDE8E5
:10253000F0870CF1FF36B6F5806FF7D2C4EBC40E0E
:102540000EF103034FEAE309C3F3C703A4EB030847
:1025500009F1010A4FF47A755FFA88F009FB055515
:102560005AFA88F8B5FBF8F5B5F5617FC1BF0EF1F1
:10257000FF33C3F3C703E01AC0B25C1C50FA84F403
:102580000CFB04F4B7FBF4F4A142CFD1013BDBB266
:102590000F2BCBD80138C0B20728C7D80021107143
:1025A00016809170D3700120C1E70846BFE700BFD5
:1025B0003F420F0080DE800270B505460E464FF4A4
:1025C0007A742B6A5B6803F00103B34207D04FF4BF
:1025D0007A7002F0FBF8013CF3D1204670BD012077
:1025E000FCE7000070B5026A936913F0700F17D012
:1025F00000230C4D936141F2900400EB43122244FE
:1026000011794E0709D5890707D5016A55F8236066
:102610008E60117941F0040111710133032BECD16B
:1026200070BD00BF9464000873B51D46036A16466A
:102630009A68D207044609D59A6801219960C2F3C5
:102640004002CDE900650021FFF760FE236A9A6829
:10265000D1050BD59A684FF480719960C2F340227E
:10266000CDE9006501212046FFF750FE236A9A68F4
:10267000D2030BD59A684FF480319960C2F340427F
:10268000CDE9006502212046FFF740FE04F58053A6
:10269000D3F8DC0010B103681B699847204602B0EC
:1026A000BDE87040FFF79EBFF8B50446066A0029F2
:1026B00077D106F10C073868800775D006EB011555
:1026C0003868D5F8B00110F0040FD5F8B0011ABF82
:1026D000C00840F00040400D6062D5F8B0C11CF069
:1026E000020F1CBF40F080406062D5F8B40106EBD9
:1026F000011100F00F0084F83000D1F8B80184F81F
:102700002800D1F8B801000A84F82900D1F8B801EE
:10271000000C84F82A00D1F8B801000E84F82B00D0
:10272000D1F8BC0184F82C00D1F8BC01000A84F86F
:102730002D00D1F8BC01000C84F82E00D1F8BC119A
:10274000090E84F82F103821396004F1440004F197
:10275000240104F1300551F8046B40F8046BA942E0
:10276000F9D109880180C4E90E2321460023A4F889
:10277000403051F8383B20469B6B984704F5805316
:1027800093F8D820D3F8DC0042F0040283F8D82074
:1027900010B103681B6998472046BDE8F840FFF771
:1027A00021BF06F1100786E7F8BD000010B504460A
:1027B00000F026FA02460B4652EA030102D0013A23
:1027C00063F100030449086820B12146BDE81040C8
:1027D000FFF76ABF10BD00BF704B0020F0B530217D
:1027E00081F31188DFF848E000F5835118310024A7
:1027F00041F2900C00EB441565442E7977070ED416
:10280000F6060CD5D1E9007697429E4107D2066ABA
:102810005EF82470B7602E7946F004062E710134FC
:10282000032C01F12001E5D1002383F31188F0BDD1
:102830009464000808B5302383F31188FFF7D2FEB3
:10284000002383F3118808BD036A9B6813F0E05FDF
:1028500014BF01200020704708B5302383F311888E
:1028600000F58050C06EFFF755FB002383F31188FD
:1028700043090CBF0120002008BD0000F8B51E462A
:10288000002313700F4605461446FFF7E5FF80F05E
:10289000010038701EB12846FFF7D6FF2070F8BD42
:1028A0002DE9B8410C4615461F46804600F0A8F9B0
:1028B0000B462178024609B9287850B14046FFF707
:1028C0008DFFFFF7B7FF3B462A462146FFF7D6FFAD
:1028D0000120BDE8B881000070B5302686F311886C
:1028E000174B1A6C42F000721A641A6A42F00072B6
:1028F0001A621A6A22F000721A62002383F31188A6
:1029000000F5805494F8D83013F0010516D1A9B120
:1029100086F311880321132001F0FEF9032114200E
:1029200001F0FAF90321152001F0F6F994F8D830F6
:1029300043F0010384F8D83085F3118870BD00BFDF
:10294000003802402DE9F04300F5805589B095F834
:10295000E030012B04460F467ED8DFF8F88158F8A6
:1029600023200AB948F82300D8F80090E761B9F1AC
:10297000000F64D095F8E030012B6FD00121204684
:10298000FFF7AAFF302383F31188226A136823F02C
:1029900002031360226A136843F001031360236A81
:1029A00000265E6186F3118801212046FFF704FEB0
:1029B000002800F09080E86EFFF79AFA04F583583B
:1029C000B14608F11808202200216846FEF724FFCE
:1029D00002A8FFF787FCCDF818906A4608EB0603BB
:1029E0000DF1180E9446BCE80300F44518605960D8
:1029F000624603F10803F5D1DCF8000018602036C8
:102A00009CF804201A71602EDDD195F8D8306FF350
:102A10008203002685F8D8306A4639462046ADF84C
:102A20000060ADF802608DF80460FFF769FD236A6D
:102A300050BB4FF400421A6009B0BDE8F08341F288
:102A4000E800FFF785FB064610B14946FFF7F4FCA6
:102A5000C8F80060002E8DD10020EDE7D8F8000006
:102A600003689B6A98470146002887D1D8F8000080
:102A7000FFF732FFD8F80000036839465B689847D3
:102A800000287FF47BAFE7E765221A609DF80230EB
:102A90009DF80310226A1B06090401F4702103F05B
:102AA00040730B43BDF80010C1F309010B439DF8BF
:102AB0000410090501F4E0010B43D361236A1322DA
:102AC0005A61226A136823F00103136031462046DD
:102AD000FFF772FD08B9236AABE795F8E02092BBD7
:102AE000216AD1F8003243F00103C1F80032216AB3
:102AF000D1F8003223F47C5323F00E03C1F80032E6
:102B0000216AD1F8003243F46063C1F80032236ACD
:102B1000C3F81422236AC3F80422236A41F6FF7122
:102B2000C3F80C12236AC3F84022236AC3F8442274
:102B3000236A0122C3F81C22226AD2F8003223F051
:102B40000103C2F8003295F8D83043F0020385F84B
:102B5000D83071E7704B002008B500F051F850EA0A
:102B60000103024602D0421E61F10001044B1868C5
:102B700010B10B46FFF758FDBDE8084001F0A2B8C0
:102B8000704B002008B50020FFF710FEBDE808409C
:102B900001F098B808B50120FFF708FEBDE808402D
:102BA00001F090B800B59BB0EFF309816822684648
:102BB000FEF70CFEEFF30583014B9B6BFEE700BFB6
:102BC00000ED00E008B5FFF7EDFF000000B59BB099
:102BD000EFF3098168226846FEF7F8FDEFF30583FD
:102BE000014B5B6BFEE700BF00ED00E0FEE700007D
:102BF0000FB408B5029801F08FFDFEE702F010BA9D
:102C000002F0F2B90139C9B202299EBF00EBC1003E
:102C10000023C0E9013370472DE9F8431E461B88A5
:102C20005B070546884618D4044600F118094C4550
:102C300013D063686BB12B6828465B6B9847338869
:102C4000A768C1B243F0040360684246B84708343D
:102C5000EDE7A368002BEED1F9E70120BDE8F8838A
:102C600073B56C4684E80600014600224E68D5B272
:102C70006EB98E685EB900EBC200021D94E80300D5
:102C8000013582E803001D70012002B070BD0132E1
:102C9000032A01F10801E9D10020F6E72DE9F04F00
:102CA0002DED028B89B09FED258BBDF85080044639
:102CB0008B46054600F11809002708F0040AA945CB
:102CC00036D06B680BB9AB6863B1BAF1000F0BD1AA
:102CD000236820465B6B98474346C1B25A46D5E904
:102CE0000106B0470835EAE7002FFBD18DED008BD8
:102CF000ADF808705B4603AA0BF1080C1868596818
:102D0000174603C7083363453A46F7D11868386059
:102D10009B88BB80FFF774FF0423ADF8083023685D
:102D2000CDE900019B6B6946204698470127D9E70A
:102D3000012009B0BDEC028BBDE8F08F000000005F
:102D4000000000002DE9F041456A15B94162BDE877
:102D5000F0814B6823F06047C3F38A464FEAD37E85
:102D6000C3F3807816EA230638BF3E46AC462B46AE
:102D70005A68BEEBD27F22F060440AD0002A18DAEB
:102D8000A40CB44217D19D420FD10D60DEE713466B
:102D9000EEE7A74207D102F08044C2F380724245B9
:102DA0000BD054B1EFE708D2EDE7CCF800100B6080
:102DB000CDE7B44201D0B442E5D81A689C46002A57
:102DC000E5D11960C3E700002DE9F047089D01F047
:102DD00007044FEAD508224405F0070500EBD100AF
:102DE0004FF47F49944201D1BDE8F08704F0070712
:102DF00005F0070A57453E4638BF5646C6F1080655
:102E0000111B8E4228BF0E46E10808EBD50E415C2F
:102E100013F80EC0B94029FA06F721FA0AF1FFB2F9
:102E20008CEA010147FA0AF739408CEA010C03F8F1
:102E30000EC034443544D5E780EA0120082341F22E
:102E4000210201B24000002980B203F1FF33B8BF74
:102E5000504013F0FF03F4D17047000038B50C4622
:102E60008D18A54200D138BD14F8011BFFF7E4FF0F
:102E7000F7E7000042684AB11368436043898189DB
:102E800001339BB29942438138BF8381104670471A
:102E900070B588B0202204460D4668460021FEF732
:102EA000BBFC20460495FFF7E5FF024658B16B4690
:102EB000054608AE1C4603CCB44228606960234630
:102EC00005F10805F6D1104608B070BD082817D9DD
:102ED00009280CD00A280CD00B280CD00C280CD0B8
:102EE0000D280CD00E2814BF4020302070470C2035
:102EF000704710207047142070471820704720201A
:102F000070470000082817D90C280CD910280CD9B4
:102F100014280CD918280CD920280CD930288CBF9B
:102F20000F200E207047092070470A2070470B20A1
:102F300070470C2070470D20704700002DE9F843C2
:102F4000078C072F04461ED9D0E9029800254FF6BA
:102F5000FF73C5F12006A5F1200029FA05F108FA52
:102F600006F628FA00F031430143C9B21846FFF7CC
:102F700063FF0835402D0346EBD1E1693A46BDE8D1
:102F8000F843FFF76BBF4FF6FF70BDE8F883000012
:102F900010B54B6823B9CA8A63F30902CA8210BD0F
:102FA00004691A681C600361C38A013BC3824A60DA
:102FB000EFE700002DE9F84F1D46CB8A0F46C3F31B
:102FC00009010529814692460B4630D00020AAB25D
:102FD00007F11A049EB2042E1FFA80F80FD890450C
:102FE00003F1010306D3FB8A0A4462F30903FB825F
:102FF00001201AE01AF80060E6540130EAE7904533
:10300000F1D2A1F1050B1C237C68BBFBF3F203FB9F
:1030100012BB1FFA8BF6002C45D14846FFF72AFF5A
:10302000044638B978606FF00200BDE8F88F4FF0C1
:103030000008E6E7002606607860ADB24FF0000BAE
:10304000454510D90AEB0803221D13F8011B9155C1
:10305000B1B208F101081B291FFA88F82BD04545A9
:1030600006F10106F1D8FB8AC3F30902154465F3A2
:103070000903BCE7013292B21C462368002BF9D148
:103080006B1F0B441C21B3FBF1F301339BB29A423B
:10309000D3D2BBF1000FD0D14846FFF7EBFE20B9E9
:1030A000C4F800B0BFE70122E7E7C0F800B05E4611
:1030B00020600446C1E74545D5D94846FFF7DAFE0A
:1030C00008B92060AFE7C0F800B0002620600446D1
:1030D000B6E700002DE9F04F2DED028B1C4683B0C2
:1030E0005B69019207468846002B00F0A780238C7D
:1030F0002BB1E269002A00F0A180072B35D807F137
:103100000C00FFF7B7FE054638B96FF002052846F8
:1031100003B0BDEC028BBDE8F08F14220021FEF756
:103120007BFB228CE16905F10800FEF74FFB208C48
:10313000013080B2FFF7E6FEFFF7C8FE013880B22B
:103140002084013028746369228C1B782A4403F0A0
:103150001F0363F03F0348F0004113723846696073
:103160002946FFF7EFFD0125D1E702339BB2072285
:10317000C18A0633B3FBF2F3828A521A9BB292B22F
:103180009342C2D800F10C034FF0000908EE103A48
:103190004FF0800A4E464D4618EE100AFFF76AFEC1
:1031A00083460028B1D014220021FEF735FB002E03
:1031B0003AD1019BABF8083002220BF1080E1FFA3E
:1031C00082FC0CF10100BCF1060F218C80B201D809
:1031D0008E422BD3FFF796FEFFF778FE62691278D6
:1031E000013802F01F028E4208BF4FF0400A42EA47
:1031F00049121BFA80F14AEA020A013048F0004203
:1032000081F808A08BF81000CBF804205946384606
:10321000FFF798FD238C0135B3422DB289F00109E7
:103220004FF0000AB8D172E70022C6E7E169895D74
:103230000EF802100136B6B20132C0E76FF0010598
:1032400065E70000F8B515460E4630220021044619
:103250001F46FEF7E1FA069B6360B5F5001F079B6A
:10326000A76034BF6A094FF6FF72A36297B2E661A6
:1032700004F1100000239A4206D800230360A782BD
:10328000E3822383E360F8BD0660013330462036D5
:10329000F1E7000003781BB94BB2002BC8BF0170E7
:1032A0007047000000787047F8B50C46C9690746BA
:1032B00011B9238C002B37D1257E1F2D34D83878B7
:1032C00028BB228C072A2CD8268A36F003032BD160
:1032D0004FF6FF70FFF7C2FD20F0010031024004FD
:1032E00041EA0561400C41EA40254FF6FF72234652
:1032F00029463846FFF7EEFE002807DD626913789D
:103300000133DBB21F2B88BF00231370F8BD218A65
:103310002D0645EA012505432046FFF70FFE02462C
:10332000E5E76FF00300F1E76FF00100EEE7000062
:1033300070B58AB0044616460021282268461D460C
:10334000FEF76AFABDF83830ADF810300F9B0593E0
:103350009DF840308DF81830119B07936946BDF8F1
:103360004830ADF820302046CDE90265FFF79CFFDC
:103370000AB070BD2DE9F041D36905460C461646EA
:103380000BB9138C5BBB377E1F2F28D895F80080B4
:10339000B8F1000F26D03046FFF7D0FD3378210278
:1033A00041EAC33141EA0801338A41EA076141EA4F
:1033B00003410246334641F080012846FFF78AFE6A
:1033C00000280ADD3378012B07D1726913780133A5
:1033D000DBB21F2B88BF00231370BDE8F0816FF0B4
:1033E0000100FAE76FF00300F7E70000F0B58BB0DB
:1033F00004460D4617460021282268461E46FEF761
:103400000BFA9DF84C305A1E534253418DF8003050
:103410009DF84030ADF81030119B05939DF8483071
:103420008DF81830149B07936A46BDF85430ADF8F8
:10343000203029462046CDE90276FFF79BFF0BB0EE
:10344000F0BD0000406A00B104307047436A1A685A
:10345000426202691A600361C38A013BC3827047FA
:103460002DE9F041D0F82080194E14461D46414602
:10347000002709B9BDE8F081D1E90223A21A65EB62
:103480000303964277EB03031ED2036A8B420DD1EE
:10349000FFF77EFD036A1B68036203690B60C38A42
:1034A0000161016A013BC3828846E2E7FFF770FDD4
:1034B0000B68C8F8003003690B60C38A0161013BE7
:1034C000C382D8F80010D4E788460968D1E700BF66
:1034D00080841E002DE9F04F8BB00D46DDF8509032
:1034E00014469B468046002800F01981B9F1000F70
:1034F00000F01581531E3F2B00F21181012A03D1E8
:10350000BBF1000F40F00B810023CDE90833B8F880
:103510001430B5EBC30F4FEAC30703D300200BB041
:10352000BDE8F08F2B199F42D8F80C303ABF7F1BB3
:10353000FFB227461BB9D8F81030002B7AD0272DC0
:103540004ED8C5F12806B7424FF000032CBFF6B2A3
:103550003E4600932946D8F8080008AB3246FFF7EC
:1035600033FCA7EB060A35445FFA8AFAB8F8143040
:1035700003F10053053BDB000493D8F80C300393B0
:103580002821039B13B1BAF1000F2CD1D8F81000F9
:1035900040B1BAF1000F05D0009608AB5246691A47
:1035A000FFF712FC38B2002FB8D066070AD00AAB7A
:1035B00003EBD401624211F8083C02F00702134108
:1035C00001F8083C082C3CD9102C40F2B580202C86
:1035D00040F2B780BBF1000F00F09C80082334E07C
:1035E000BA460026C2E7049BE02B28BFE0230693DF
:1035F0000B44AB42059314D95A1B0398009692458D
:1036000034BF5246D2B2691A08AB04300792FFF7B2
:10361000DBFB079A1644AAEB020A1544F6B25FFADE
:103620008AFA049B069A05999B1A0493039B1B68CC
:103630000393A6E70093D8F8080008AB3A4629465A
:10364000AEE7BBF1000F13D00123B4EBC30F6CD076
:10365000082C12D89DF82030621E23FA02F2D507FA
:1036600006D54FF0FF3202FA04F423438DF82030E0
:103670009DF8203089F8003051E7102C12D8BDF8A1
:103680002030621E23FA02F2D10706D54FF0FF3236
:1036900002FA04F42343ADF82030BDF82030A9F835
:1036A00000303CE7202C0FD80899631E21FA03F361
:1036B000DA0705D54FF0FF3202FA04F40C43089400
:1036C000089BC9F800302AE7402C2BD0DDE90865BB
:1036D000611EC4F12102A4F1210326FA01F105FAC9
:1036E00002F225FA03F311431943CB0712D5012245
:1036F000A4F12003C4F1200102FA03F322FA01F13C
:10370000A240524243EA010363EB430332432B439B
:10371000CDE90823DDE90823C9E90023FFE66FF0BE
:103720000100FCE66FF00800F9E6082CA0D9102C87
:10373000B3D9202CEED8C3E7BBF1000FADD00223E4
:1037400083E7BBF1000FBBD004237EE730B5012A2D
:10375000144638BF0124402C85B028BF40240025E2
:10376000012ACDE9025518D81B788DF80830630777
:103770000AD004AB03EBD405624215F8083C02F012
:103780000702934005F8083C0091034622460021B9
:1037900002A8FFF719FB05B030BD082AE4D9102AAA
:1037A00003D81B88ADF80830E1E7202A8DBFD3E9A4
:1037B00000231B680293CDE90223D8E710B5CB683C
:1037C0001BB98B600B618B8210BD04691A681C6089
:1037D0000361C38A013BC382CA60F0E703064CBFA2
:1037E000C0F3C0300220704708B50246FFF7F6FF6D
:1037F000022806D15306C2F30F2001D100F00300C6
:1038000008BDC2F30740FBE72DE9F04F93B0CDE9C7
:1038100004230A6804461046FFF7E0FF022814BF9D
:10382000C2F306260026002A0D46824680F2028256
:1038300012F0C04940F0FE81097B002900F0FA81B6
:10384000022803D02378B34240F0F781C2F3046327
:103850000693104602F07F030393FFF7C5FF039B17
:1038600029444FEA834848EA0A4848EA4668CE783D
:1038700000230022CDE90823F309834648EA000823
:10388000029367D0039B009302466768534608A9DA
:103890002046B847002868D0276A4FB9414604F14E
:1038A0000C00FFF7F5FA074690B96FF002006AE0E6
:1038B0003B6998450DD03F68002FF9D1414604F18E
:1038C0000C00FFF7E5FA07460028EED0236A3B60BC
:1038D000276297F817C006F01F08CCF3840CACEBF6
:1038E00008001FFA80FE0028B8BF0EF12000A8EBE8
:1038F0000C031FFA83FED7E90221B8BF00B2002BE8
:103900000793BEBF0EF120031BB2079352EA0103D7
:1039100042D0049BDFF834E39A1A059B4FF0000C69
:1039200063EB010196457CEB010335D36B7B97F884
:103930001AE0734521D1029B002B00F084800128FE
:103940002ADC786840BBDFF800C3944570EB0103C4
:1039500043D21EE0276A5FB9039B00936568534614
:103960005A4608A92046A84768BB6FF00B000AE03A
:103970003B699845ADD03F68EDE7B34890427CEB9A
:10398000010303D3002013B0BDE8F08F029B002B8E
:10399000F8D0079B0F2B19DCFA7DB30002F003026D
:1039A00003F07C031343FB7539462046FFF7F0FA1A
:1039B0006B7BBB76029B4BB9FB7DC3F38402013268
:1039C00062F38603FB756FF00C00DCE76A7BBB7E5D
:1039D0009A42D7D1029B002B35D0B309022B32D0AB
:1039E000049BBB60059BFB60142200210DA8FDF722
:1039F00013FF049B0A93059B0B932B1D0C932B7BAE
:103A0000ADF83EB0013BDBB2ADF83C30069B8DF823
:103A10004230039B8DF8433094F82C308DF840A051
:103A200083F001038DF844308DF84180A3680AA922
:103A300020469847FB7DC3F38403013303F01F0343
:103A40009B02FB829EE7FB7DC6F34012B2EBD31FC5
:103A500040F0F680C3F38403434540F0F980029AB6
:103A60002B7BB609002A52D016F0010661D1032B38
:103A700040F2F180049BBB60059BFB60FB8A66F310
:103A80000903FB822B7BAE1D033BDBB2324639467A
:103A900004F10C00FFF78EFA00280CDA39462046B4
:103AA000FFF776FAFB7DC3F38403013303F01F03B2
:103AB0009B02FB82F9E6DDE90884AB883B834FF685
:103AC000FF73C9F12000A9F1200228FA09F104FAD4
:103AD00000F0014324FA02F211431846C9B2FFF77D
:103AE000ABF909F10809B9F1400F0346E9D1B882F1
:103AF0002A7B033AD2B23146FFF7B0F9FB7DB88298
:103B0000DA43C2F3C01262F3C713FB753AE786B912
:103B10002E1D013BDBB23246394604F10C00FFF7A3
:103B200049FA0028BADB2A7BB88A013AD2B2314678
:103B3000E2E7F98AC1F30901013B0429DAB25BD853
:103B4000281D002307F11B069A4208D910F801CB63
:103B500006F801C0013101330529DBB2F4D1049923
:103B60000A9105990B91934207F11B010C9138BF03
:103B7000043379680D9134BF55FA83F300230E9313
:103B8000FB8AADF83EB0C3F309031A44069B8DF8D7
:103B90004230039B8DF8433094F82C30ADF83C2034
:103BA00083F001038DF8443000238DF840A08DF898
:103BB00041807B602A7BB88A013A291DFFF74EF9C4
:103BC0003B8BB882834203D1A3680AA92046984759
:103BD00020460AA9FFF7F2FDFB7DBA8AC3F38403EE
:103BE000013303F01F039B02FB823B8B9A420CBF05
:103BF00000206FF01000C6E67B68002BAFD00520D8
:103C000001E01C3033461E68002EFAD1091A081D47
:103C10002E1D184401EB090CBCF11B0F5FFA89F350
:103C20009DD89A429BD916F8013B00F8013B09F157
:103C30000109EFE76FF00900A5E66FF00A00A2E6C0
:103C40006FF00D009FE600BF40420F0080841E0011
:103C50006FF00E0097E66FF00F0094E6EFF3098324
:103C600005494A6B22F001024A63683383F30988ED
:103C7000002383F31188704700EF00E0302080F3C9
:103C8000118862B60C4B0D4AD96821F4E061090431
:103C9000090C0A43DA60D3F8FC20094942F080722B
:103CA000C3F8FC200A6842F001020A602022DA7799
:103CB00083F82200704700BF00ED00E00003FA0522
:103CC000001000E010B5302383F311880E4B5B68C1
:103CD00013F4006314D0F1EE103AEFF30984683C5A
:103CE0004FF08073E361094BDB6B236684F3098833
:103CF00000F0D6FC10B1064BA36110BD054BFBE7ED
:103D000083F31188F9E700BF00ED00E000EF00E069
:103D10003F0300084203000800F1604303F56143DC
:103D20000901C9B283F80013012200F01F039A4071
:103D300043099B0003F1604303F56143C3F880210D
:103D40001A607047026843681143016003B1184765
:103D50007047000013B5446BD4F894341A68117896
:103D6000042915D1217C022912D119791289012344
:103D70008B4013420CD101A904F14C0002F018F859
:103D8000D4F89444019B21790246206800F0F6F9AA
:103D900002B010BD143001F09BBF00004FF0FF33A4
:103DA000143001F095BF00004C3002F06DB80000F7
:103DB0004FF0FF334C3002F067B80000143001F0D0
:103DC00069BF00004FF0FF31143001F063BF000005
:103DD0004C3002F039B800004FF0FF324C3002F0A6
:103DE00033B8000010B5D0F894341A68117804295B
:103DF000044617D1017C022914D159795289012333
:103E00008B4013420ED1143001F0FEFE024648B141
:103E1000D4F894444FF4807361792068BDE8104071
:103E200000F09AB910BD0000406BFFF7DBBF000047
:103E300000290CBF6FF0130000207047704700008E
:103E40007FB5124B036000234360C0E902330125B4
:103E500002260F4B057404460290019300F1840280
:103E6000294600964FF48073143001F0A9FE094BE7
:103E70000294CDE9006304F523724FF48073294660
:103E800004F14C0001F070FF04B070BDE464000860
:103E9000293E0008553D0008302383F311880B6844
:103EA0000A7903EB820290614A79093243F82200D1
:103EB0008A7912B103EB820398610223C0F894144B
:103EC0000374002080F311887047000038B5037F29
:103ED000044613B190F85430ABB9201D01250221DE
:103EE000FFF730FF04F1140025776FF0010100F0B7
:103EF00095FC84F8545004F14C006FF00101BDE8CA
:103F0000384000F08BBC38BD10B5012104460430A8
:103F1000FFF718FF0023237784F8543010BD00000A
:103F200038B504460025143001F062FE04F14C005F
:103F3000257701F031FF201D84F854500121FFF74F
:103F400001FF2046BDE83840FFF74CBF90F84430F1
:103F500003F06003202B07D190F84520212A4FF071
:103F6000000303D81F2A06D800207047222AFBD15D
:103F7000C0E90E3303E0034A82630722C26303648D
:103F8000012070471D23002037B5D0F894341A68FB
:103F90001178042904461AD1017C022917D1197914
:103FA000128901238B40134211D100F14C052846A0
:103FB00001F0B2FF58B101A9284601F0F9FED4F88A
:103FC0009444019B21790246206800F0D7F803B0A1
:103FD00030BD00002DE9F34104460D4619B300EB56
:103FE00081039E69FEB1302383F3118800EB8107C2
:103FF00006F14C08FB685B691B6833B1404601F071
:10400000E5FE0821301DFFF79DFE01A9404601F0A5
:10401000CFFE024650B1019B2946204600F0AEF883
:10402000002383F3118802B0BDE8F081FB685A6970
:10403000126832B11B8A013B134002D104F14402E1
:10404000EAE71021301DFFF77DFEE9E738B5F9B149
:10405000093150F82140DCB1302383F31188D4F8C2
:1040600094241368527903EB8203DB689B695D68D3
:1040700045B104216018FFF765FE294604F11400DC
:1040800001F0CCFD2046FFF7ADFE002383F311883D
:1040900038BD00007047000010B50021044601F053
:1040A00071FD0021204601F063FD63681B6813B1B8
:1040B000062120469847A36823F00113A36000233C
:1040C000E363062384F8343010BD000001F0ECB83F
:1040D000012303700023C0E90133C36183620362DB
:1040E000C36243620363704738B50446302383F3E9
:1040F00011880025C0E90355C0E90555416001F06C
:10410000E3F80223237085F31188284638BD0000A8
:1041100070B500EB810305465069DA600E4614461F
:1041200018B110220021FDF777FBA06918B1102209
:104130000021FDF771FB31462846BDE8704001F0D3
:104140008FB90000826802F0011282600022C0E98B
:104150000422826101F010BAF0B400EB81044789B7
:10416000E4680125A4698D403D4345812360002317
:10417000A2606360F0BC01F02BBA0000F0B400EB69
:1041800081040789E468012564698D403D43058108
:1041900023600023A2606360F0BC01F0A5BA0000B8
:1041A00070B50223002504460370C0E90255C0E93A
:1041B0000455C564C563856180F8345001F0EAF8A0
:1041C00063681B6823B129462046BDE87040184744
:1041D00070BD00000378052B10B504460AD080F8A6
:1041E00050300523037043681B680BB104219847C6
:1041F0000023A36010BD00000178052906D190F8C6
:104200005020436802701B6803B1184770470000D4
:1042100070B590F8343004463BB1836823F0011345
:1042200083600023C36380F8343004F1440200212A
:10423000204601F0C3F963689B684BB994F8443099
:1042400013F0600528D02046BDE87040FFF724BF7A
:10425000204698470028F1D0B4F84A30E26B9A42E1
:1042600088BFE36394F94430E56B002B4FF03003D3
:1042700080F20281002D00F0F180092284F83420C0
:1042800083F311880021D4E90E232046FFF776FF3F
:10429000002383F3118870BD94F8452003F07F0359
:1042A00043EA022340F20232934200F0C48021D854
:1042B000B3F5807F47D00DD8012B3ED0022B00F004
:1042C0009280002BBFD104F14C02A2630222E26370
:1042D0002364C1E7B3F5817F00F09A80B3F5407F96
:1042E000B1D194F84630012BADD1B4F84C3043F045
:1042F000020331E0B3F5006F4CD017D8B3F5A06FCF
:1043000030D0A3F5C063012B9DD8636894F8462094
:104310005E6894F84710B4F848302046B04700284B
:1043200091D04368A3630368E36319E0B3F5106FAA
:1043300035D040F60242934285D15C4BA363022301
:10434000E3630023C4E794F84630012B7FF47BAF8E
:10435000B4F84C3023F00203C4E90E55A4F84C30F5
:10436000256479E7B4F84430B3F5A06F0ED194F822
:10437000463084F84E30204601F066F863681B68CA
:1043800013B1012120469847032323700023C4E979
:104390000E339DE704F14F03A3630123C4E72378A1
:1043A000042B10D1302383F311882046FFF7CAFE77
:1043B00085F311880321636884F84F5021701B68CE
:1043C0000BB12046984794F84630002BDED084F895
:1043D0004F300423237063681B68002BD6D0022162
:1043E00020469847D2E794F848301D0603F00F01A5
:1043F00020460AD501F0D4F8012804D002287FF421
:1044000022AF2B4B9AE72B4B98E701F0BBF8F3E771
:1044100094F84630002B7FF416AF94F8483013F030
:104420000F01B3D01A06204602D501F0BFFBADE75D
:1044300001F0B2FBAAE794F84630002B7FF403AFFB
:1044400094F8483013F00F01A0D01B06204602D587
:1044500001F098FB9AE701F08BFB97E7142284F8B0
:10446000342083F311882B462A4629462046FFF73D
:1044700073FE85F311880EE75DB1152284F83420B0
:1044800083F311880021D4E90E232046FFF764FE50
:10449000FEE60B2284F8342083F311882B462A464B
:1044A00029462046FFF76AFEE3E700BF14650008CF
:1044B0000C6500081065000838B590F834300B2BF7
:1044C000044609D80B2B37D8DFE803F00836363618
:1044D00036360836360D2737152B2DD12046BDE848
:1044E0003840FFF7D9BDC56BB0F84A309D4214D2B1
:1044F000C3681B8AB5FBF3F203FB12556DB9302379
:1045000083F311882B462A462946FFF737FE85F3A9
:1045100011880A2384F834300EE0142384F83430F0
:10452000302383F3118800231A4619462046FFF7EB
:1045300013FE002383F3118838BD036C03B1984741
:10454000A36823F00113A3600023E363E2E7000004
:1045500010B590F83430142B04461ED00CD8062B1E
:1045600005D001D81BB110BD0A3B012BFBD820465A
:10457000BDE81040FFF790BD152BF4D10B2380F858
:104580003430302383F3118800231A461946FFF78D
:10459000F5FD002383F31188E5E7C3689B695B6839
:1045A000002BE0D1036C03B19847A36823F00113FB
:1045B000A3600023E36384F83430D4E70023037559
:1045C000826803691B6899689142FBD25A6803604C
:1045D0004260106058607047002303758268036969
:1045E0001B6899689142FBD85A680360426010606A
:1045F0005860704708B50846302383F311880B7D57
:10460000032B05D0042B0DD02BB983F3118808BDE3
:104610008B6900221A604FF0FF338361FFF7CEFFF2
:104620000023F2E7D1E9003213605A60F3E700009B
:10463000FFF7C4BF38B50A4BDD681C6828752268CF
:104640001A605360DC60A36801229342227501D195
:1046500000F0AEFD29462046BDE83840FBF75ABEC3
:10466000804B002030B50C4BDD684B1C87B00446F6
:104670000FD02B46094A684600F064F92046FFF740
:10468000D9FF009B13B1684600F066F9A86907B02E
:1046900030BDFFF7CFFFF9E7804B0020F54500085C
:1046A000044B1A68DB6890689B68984294BF0020AE
:1046B00001207047804B002038B50B4B1C68DD682B
:1046C00022681A60536001222275DC60AB68934255
:1046D00001D100F06FFD2846FFF77EFF014620461E
:1046E000BDE83840FBF716BE804B002038B5074CBC
:1046F00007490848012300252370656001F044FC48
:104700000223237085F3118838BD00BFE84D0020D7
:104710001C650008804B002008B572B6044B186574
:1047200000F048FC00F0FAFC024B03221A70FEE78E
:10473000804B0020E84D002000F044B9034A516846
:1047400053685B1A9842FBD8704700BF001000E026
:104750008B60022308618B82084670478368A3F14F
:10476000840243F8142C026943F8442C426943F84C
:10477000402C094A43F8242CC26843F8182C022222
:1047800003F80C2C002203F80B2C044A43F8102CDD
:10479000A3F12000704700BF2D030008804B0020CC
:1047A00008B5FFF7DBFFBDE80840FFF741BF000099
:1047B000024BDB6898610F20FFF73CBF804B002065
:1047C000302383F31188FFF7F3BF000008B50146DB
:1047D000302383F311880820FFF744FF002383F37D
:1047E000118808BD064BDB6839B1426818605A6011
:1047F000136043600420FFF735BF4FF0FF30704770
:10480000804B00200368984206D01A68026050600E
:1048100099611846FFF70CBF7047000038B5044691
:104820000D462068844200D138BD036823605C6077
:104830008561FFF7FDFEF4E710B503689C68A242AE
:104840000CD85C688A600B604C6021605960996884
:104850008A1A9A604FF0FF33836010BD1B68121BE9
:10486000ECE700000A2938BF0A2170B504460D465E
:104870000A26601901F082FB01F06EFB041BA542C1
:1048800003D8751C2E460446F3E70A2E04D9BDE86A
:104890007040012001F0B8BB70BD0000F8B5144BAA
:1048A0000D46D96103F1100141600A2A196982603D
:1048B00038BF0A22016048601861A818144601F048
:1048C0004FFB0A2701F048FB431BA342064606D3D1
:1048D0007C1C281901F052FB27463546F2E70A2FC7
:1048E00004D9BDE8F840012001F08EBBF8BD00BF3F
:1048F000804B0020F8B506460D4601F02DFB0F4A0F
:10490000134653F8107F9F4206D12A46014630468F
:10491000BDE8F840FFF7C2BFD169BB68441A2C1943
:1049200028BF2C46A34202D92946FFF79BFF224607
:1049300031460348BDE8F840FFF77EBF804B0020BA
:10494000904B002010B4C0E9032300235DF8044B12
:104950004361FFF7CFBF000010B5194C236998429F
:104960000DD0D0E90032816813605A609A680A4419
:104970009A60002303604FF0FF33A36110BD23460C
:10498000026843F8102F53600022026022699A42A5
:1049900003D1BDE8104001F0EBBA936881680B4485
:1049A000936001F0D9FA2269E1699268441AA2423F
:1049B000E4D91144BDE81040091AFFF753BF00BF06
:1049C000804B00202DE9F047DFF8BC8008F110078C
:1049D0002C4ED8F8105001F0BFFAD8F81C40AA6845
:1049E000031B9A423ED81444D5E900324FF0000927
:1049F000C8F81C4013605A60C5F80090D8F8103011
:104A0000B34201D101F0B4FA89F31188D5E9033139
:104A100028469847302383F311886B69002BD8D040
:104A200001F09AFA6A69A0EB04094A4582460DD260
:104A3000022001F0E9FA0022D8F81030B34208D180
:104A400051462846BDE8F047FFF728BF121A224416
:104A5000F2E712EB090938BF4A4629463846FFF704
:104A6000EBFEB5E7D8F81030B34208D01444211A51
:104A7000C8F81C00A960BDE8F047FFF7F3BEBDE829
:104A8000F08700BF904B0020804B002038B501F02C
:104A900063FA054AD2E90845031B181945F10001DC
:104AA000C2E9080138BD00BF804B002000207047DC
:104AB000FEE70000704700004FF0FF307047000035
:104AC00002290CD0032904D00129074818BF00206F
:104AD0007047032A05D8054800EBC2007047044818
:104AE00070470020704700BFF46500082C230020A9
:104AF000A865000870B59AB00546084601A9144695
:104B000000F0C2F801A8FCF77FFE431C5B00C5E97A
:104B100000340022237003236370C6B201AB023459
:104B20001046D1B28E4204F1020401D81AB070BD11
:104B300013F8011B04F8021C04F8010C0132F0E721
:104B400008B5302383F311880348FFF71DFA0023CB
:104B500083F3118808BD00BFF04D002090F8443069
:104B600003F01F02012A07D190F845200B2A03D138
:104B70000023C0E90E3315E003F06003202B08D1B9
:104B8000B0F848302BB990F84520212A03D81F2AC5
:104B900004D8FFF7DBB9222AEBD0FAE7034A826395
:104BA0000722C26303640120704700BF2423002052
:104BB00007B5052917D8DFE801F0191603191920E0
:104BC000302383F31188104A01900121FFF7A0FAE6
:104BD00001980E4A0221FFF79BFA0D48FFF7A0F952
:104BE000002383F3118803B05DF804FB302383F3C3
:104BF00011880748FFF76AF9F2E7302383F3118839
:104C00000348FFF781F9EBE7486500086C65000889
:104C1000F04D002038B50C4D0C4C0D492A4604F1DE
:104C20000800FFF767FF05F1CA0204F11000094907
:104C3000FFF760FF05F5CA7204F118000649BDE8E8
:104C40003840FFF757BF00BFB85200202C23002088
:104C500028650008326500083D65000870B5044607
:104C600008460D46FCF7D0FDC6B220460134037855
:104C70000BB9184670BD32462946FCF7B1FD002835
:104C8000F3D10120F6E700002DE9F04705460C4678
:104C9000FCF7BAFD2C49C6B22846FFF7DFFF08B182
:104CA0000836F6B229492846FFF7D8FF08B1103672
:104CB000F6B2632E0BD8DFF89080DFF89090244F87
:104CC000DFF898A02E7846B92670BDE8F08729460F
:104CD0002046BDE8F04701F07BBB252E30D10722EE
:104CE00041462846FCF77CFD80B91A4B224603F169
:104CF0000C0153F8040B42F8040B8B42F9D11988CC
:104D00009B781180937007350F34DBE70822494602
:104D10002846FCF765FD98B90F4BA21C19780909C4
:104D20000232C95D02F8041C13F8011B01F00F01E7
:104D30005345C95D02F8031CF0D118340835C1E7AA
:104D400004F8016B0135BDE7146600083D650008F5
:104D50001C660008FA630008107AFF1F1C7AFF1F08
:104D6000BFF34F8F024AD368DB03FCD4704700BF08
:104D7000003C024008B5094B1B7873B9FFF7F0FF00
:104D8000074B1A69002ABFBF064A5A6002F18832EF
:104D90005A601A6822F480621A6008BD1655002015
:104DA000003C02402301674508B50B4B1B7893B9C3
:104DB000FFF7D6FF094B1A6942F000421A611A68E0
:104DC00042F480521A601A6822F480521A601A68FB
:104DD00042F480621A6008BD16550020003C024073
:104DE0000B28F0B516D80C4C0C4923787BB90C4D28
:104DF0000E460C234FF0006255F8047B46F8042B56
:104E0000013B13F0FF033A44F6D10123237051F81C
:104E10002000F0BD0020FCE7485500201855002078
:104E200030660008014B53F82000704730660008D8
:104E30000C2070470B2810B5044601D9002010BD86
:104E4000FFF7CEFF064B53F824301844C21A0BB9B3
:104E50000120F4E712680132F0D1043BF6E700BF0D
:104E6000306600080B2810B5044621D8FFF778FFFC
:104E7000FFF780FF0F4AF323D360C300DBB243F494
:104E8000007343F002031361136943F48033136129
:104E9000FFF766FFFFF7A4FF074B53F8241000F05D
:104EA00039F9FFF781FF2046BDE81040FFF7C2BF88
:104EB000002010BD003C024030660008F8B512F03A
:104EC0000103144642D18218B2F1016F57D82D4B1D
:104ED0001B6813F0010352D02B4DFFF74BFFF32358
:104EE000EB60FFF73DFF40F20127032C15D824F0BB
:104EF00001046618244C401A40F20117B14223699C
:104F000000EB010524D123F001032361FFF74CFFDF
:104F10000120F8BD043C0430E7E78307E7D12B69A3
:104F200023F440732B612B693B432B6151F8046BD5
:104F30000660BFF34F8FFFF713FF03689E42E9D06F
:104F40002B6923F001032B61FFF72EFF0020E0E720
:104F500023F44073236123693B4323610B882B8037
:104F6000BFF34F8FFFF7FCFE2D8831F8023BADB247
:104F7000AB42C3D0236923F001032361E4E7184661
:104F8000C7E700BF00380240003C0240084908B5AE
:104F90000B7828B11BB9FFF7EDFE01230B7008BD9C
:104FA000002BFCD0BDE808400870FFF7FDBE00BF35
:104FB0001655002008B50649064800F0ADF8BDE8D2
:104FC00008404FF480314FF0805000F0A5B800BF8A
:104FD00000FF0100000100200846114601F0A8B9B9
:104FE000084601F0BBB9000038B5EFF311859DB953
:104FF000EFF30584C4F30804302334B183F311883C
:10500000FFF744FD85F3118838BD83F31188FFF75E
:105010003DFD84F3118838BDBDE83840FFF736BD4B
:1050200038B5FFF7E1FF114C114AC00840EA417062
:10503000A0FB025EC908A0FB040C1CEB050CA1FB45
:1050400004404FF000035B41A1FB02121CEB040C77
:1050500043EB000011EB0E0142F10002411842F156
:105060000000090941EA007038BD00BFCFF753E3E3
:10507000A59BC42010B50244064BD2B2904200D189
:1050800010BD441C00B253F8200041F8040BE0B2FC
:10509000F4E700BF502800400F4B30B51C6F2404CC
:1050A00007D41C6F44F400741C671C6F44F4004464
:1050B0001C670A4C236843F4807323600244084B46
:1050C000D2B2904200D130BD441C00B251F8045B12
:1050D00043F82050E0B2F4E700380240007000408E
:1050E0005028004007B5012201A90020FFF7C2FFA8
:1050F000019803B05DF804FB13B50446FFF7F2FF17
:10510000A04205D0012201A900200194FFF7C4FFAD
:1051100002B010BD704700007047000070470000EB
:10512000074B45F255521A6003225A6040F2FF7253
:105130009A604CF6CC421A60024B01221A707047FA
:105140000030004050550020034B1B781BB1034B2F
:105150004AF6AA221A6070475055002000300040DD
:10516000034B1A681AB9034AD2F874281A607047B8
:105170004C55002000300240024B4FF08072C3F8C3
:10518000742870470030024008B5FFF7E9FF024B72
:105190001868C0F3407008BD4C55002008B5FFF7F3
:1051A000DFFF024B1868C0F3007008BD4C550020AB
:1051B000704700007047000070470000FEE70000E5
:1051C0000A4B0B480B4A90420BD30B4BDA1C121ABA
:1051D000C11E22F003028B4238BF00220021FCF7DF
:1051E0001BBB53F8041B40F8041BECE7486800089D
:1051F000CC550020CC550020CC55002070B5D0E90E
:1052000015439E6800224FF0FF3504EB4213510115
:10521000D3F800090028BEBFD3F8000940F0804051
:10522000C3F80009D3F8000B0028BEBFD3F8000B69
:1052300040F08040C3F8000B013263189642C3F877
:105240000859C3F8085BE0D24FF00113C4F81C38CA
:1052500070BD00000E4AF0B5D2E915639F680023C7
:105260000C321946012552F8040B58B1846924B157
:1052700001F1100405FA04F42343406910B105FA62
:1052800001F003430131B942EDD9C6F81C38F0BD35
:1052900054550020890141F02001016103699B06FA
:1052A000FCD41220FFF74ABA10B5054C2046FEF791
:1052B0000FFF4FF0A0436365024BA36510BD00BF15
:1052C000545500208466000870B50378012B05460C
:1052D00050D12A4B446D98421BD1294B5A6B42F056
:1052E00080025A635A6D42F080025A655A6D5A69BB
:1052F00042F080025A615A6922F080025A610E21FE
:1053000043205B69FEF708FD1E4BE3601E4BC4F8AB
:1053100000380023C4F8003EC02323606E6D4FF4B4
:105320000413A3633369002BFCDA012333610C20DF
:10533000FFF704FA3369DB07FCD41220FFF7FEF90C
:105340003369002BFCDA0026A6602846FFF756FFDB
:105350006B68C4F81068DB68C4F81468C4F81C688B
:105360004BB90A4BA3614FF0FF336361A36843F06D
:105370000103A36070BD064BF4E700BF5455002045
:10538000003802404014004003002002003C30C0BE
:10539000083C30C0F8B5446D054600212046FFF7B3
:1053A00079FFA96D00234FF001128F68C4F83438DB
:1053B0004FF00066C4F81C284FF0FF3004EB431296
:1053C00001339F42C2F80069C2F8006BC2F80809B5
:1053D000C2F8080BF2D20B686A6DEB6563621023AA
:1053E0001361166916F01006FBD11220FFF7A6F91B
:1053F000D4F8003823F4FE63C4F80038A36943F4FA
:10540000402343F01003A3610123C4F8103809239B
:10541000C4F814380A4BEB604FF0C043C4F8103B9B
:10542000084BC4F8003BC4F81069C4F80039EB6DB0
:1054300003F1100243F48013EA65A362F8BD00BFD4
:105440006066000840800010426D90F84E10D2F85F
:10545000003823F4FE6343EA0113C2F800387047B2
:105460002DE9F84300EB8103456DDA68166806F014
:105470000306731E022B05EB41130C4680460FFA00
:1054800081F94FEA41104FF00001C3F8101B4FF0B3
:10549000010104F1100398BFB60401FA03F3916906
:1054A0008EBF334E06F1805606F5004600293AD0ED
:1054B000578A04F15801490137436F50D5F81C1839
:1054C0000B43C5F81C382B180021C3F81019536979
:1054D0000127611EA7409BB3138A928B9B08012A68
:1054E00088BF5343D8F85C20981842EA034301F17F
:1054F000400205EB8202C8F85C0021465360284652
:10550000FFF7C8FE08EB8900C3681B8A43EA84538F
:10551000483464011E432E51D5F81C381F43C5F88A
:105520001C78BDE8F88305EB4917D7F8001B21F478
:105530000041C7F8001BD5F81C1821EA0303C0E797
:1055400004F13F0305EB83030A4A5A6028462146CB
:10555000FFF7A0FE05EB4910D0F8003923F4004313
:10556000C0F80039D5F81C3823EA0707D7E700BF91
:105570000080001000040002826D1268C265FFF70F
:105580003DBE00005831436D49015B5813F40040A3
:1055900004D013F4001F0CBF02200120704700004C
:1055A0004831436D49015B5813F4004004D013F4B3
:1055B000001F0CBF022001207047000000EB81019A
:1055C000CB68196A0B6813604B6853607047000022
:1055D00000EB810330B5DD68AA691368D36019B99F
:1055E000402B84BF402313606B8A1468426D1C44B7
:1055F000013CB4FBF3F46343033323F0030302EBF6
:10560000411043EAC44343F0C043C0F8103B2B6849
:1056100003F00303012B09B20ED1D2F8083802EBD4
:10562000411013F4807FD0F8003B14BF43F0805347
:1056300043F00053C0F8003B02EB4112D2F8003BAC
:1056400043F00443C2F8003B30BD00002DE9F041B7
:10565000244D6E6D06EB40130446D3F8087BC3F867
:10566000087B38070AD5D6F81438190706D505EB94
:1056700084032146DB6828465B689847FA071FD5F4
:10568000D6F81438DB071BD505EB8403D968CCB9F1
:105690008B69488A5A68B2FBF0F600FB16228AB979
:1056A0001868DA6890420DD2121AC3E90024302338
:1056B00083F311880B482146FFF78AFF84F3118892
:1056C000BDE8F081012303FA04F26B8923EA0203A7
:1056D0006B81CB68002BF3D021460248BDE8F04136
:1056E000184700BF5455002000EB810370B5DD68FA
:1056F000436D6C692668E6604A0156BB1A444FF454
:105700000020C2F810092A6802F00302012A0AB236
:105710000ED1D3F8080803EB421410F4807FD4F8BC
:10572000000914BF40F0805040F00050C4F8000958
:1057300003EB4212D2F8000940F00440C2F800091D
:10574000D3F83408012202FA01F10143C3F83418F6
:1057500070BD19B9402E84BF4020206020682E8A79
:105760008419013CB4FBF6F440EAC44040F0005018
:105770001A44C6E72DE9F84F4B4D6E6D06EB40130A
:105780000446D3F80889C3F8088918F0010F4FEAD6
:1057900040171AD0D6F81038DB0716D505EB800372
:1057A000D9684B691868DA68904233D2121A4FF000
:1057B00000091A60C3F80490302383F3118821464E
:1057C0002846FFF791FF89F3118818F0800F1FD04A
:1057D000D6F834380126A640334219D005EB8403AD
:1057E0006D6DD3F80CC0DCF814000134E4B2D0F8CD
:1057F00000E005EB04342F446FF00308D0F8049068
:10580000F14515D3D5F8343823EA0606C5F83468CF
:10581000BDE8F88F012303FA04F22B8923EA02037F
:105820002B818B68002BD0D0214628469847CCE7A7
:10583000BCF81020AEEB0903934228BF1346D7F8FB
:10584000182992B2B3EB820FE2D88268194602EBB4
:10585000030B0329ABEB010A1CD84FEA930A23F090
:10586000030B08FB0A31934479B1022918D00329AC
:1058700018D19BF8021009049BF801B041EA0B21F2
:1058800012F82AA04AEA010121601A444B448260BE
:105890004360B3E7DAF800A0C4F800A00439D8E701
:1058A0000021E9E70021EBE7545500202DE9F74FEF
:1058B000AD4C656D4FF040084FF001096E69AB6962
:1058C0001E4016F480576E6107D0A748FEF768FCAB
:1058D00003B0BDE8F04FFEF7F5B9002E14DAD5F8A5
:1058E000003E98071EBFD5F8003E23F00303C5F81D
:1058F000003EFFF7AFFCD5F8043823F00103C5F8EC
:1059000004382046FEF778FC310505D52046FFF720
:1059100075FC2046FEF75EFCB2040CD5D5F80838BD
:1059200013F0060FEB6823F470530CBF43F41053CD
:1059300043F4A053EB60330719D56368DB681BB9E8
:10594000AB6923F00803AB612378052B08D1D5F8A8
:10595000003E23F00303C5F8003E2046FEF74CFC52
:10596000FFF778FC6368DB680BB120469847F002CC
:105970004FD4B10209D5D4F854B04FF0000AA36D4A
:105980009B685FFA8AF18B427AD23203D5F818A865
:1059900000F19380730317D51AF0010F02D0002095
:1059A000FFF7E8FE1AF0020F02D00120FFF7E2FE37
:1059B0001AF0040F02D00220FFF7DCFE1AF0080FE5
:1059C00002D00320FFF7D6FEF00619D5D4F854C054
:1059D000DCF82020C2F30A1002F00F0302F4F012E8
:1059E000B2F5802F00F09080B2F5402F08D104EB83
:1059F00083030022DB681B6A0CF5805C904276D141
:105A00005A4B1E423FF464AFB8F101087FF456AF21
:105A10005EE7636D01934FF0000BA36D9B685FFA27
:105A20008BFA9A45A5D8019B03EB4A13D3F80019CA
:105A300001F44021B1F5802F1FD1D3F800190029BE
:105A40001BDAD3F8001941F09041C3F80019D3F8DC
:105A500000190029FBDB5146606DFFF71BFC218913
:105A600009FA0AF321EA0303238104EB8A03DB68C2
:105A70009B6813B15146204698470BF1010BCCE7C8
:105A80000BEB4112D2F8003B03F44023B3F5802F17
:105A900010D1D2F8003B002B0CDA628909FA01F32D
:105AA00022EA0303638104EB8103DB68DB680BB14B
:105AB000204698470AF1010A61E71AF4803F02D0B4
:105AC0000020FFF7C3FD1AF4003F02D00120FFF7CA
:105AD000BDFD1AF4802F02D00220FFF7B7FD1AF4A3
